:100000000C944E000C946D000C946D000C946D00DB
:100010000C946D000C946D000C946D000C946D00AC
:100020000C946D000C946D000C946D000C946D009C
:100030000C946D000C94E6000C946D000C946D0013
:100040000C946D000C946D000C946D000C946D007C
:100050000C946D000C946D000C946D000C946D006C
:100060000C946D000C946D000C946D000C946D005C
:100070000C946D000C946D000C946D000C946D004C
:100080000C946D000C946D000C946D0097019E0112
:10009000AF01C001D101E201F301040211241FBE2E
:1000A000CFEFD0E4DEBFCDBF11E0A0E0B1E0E2E0F1
:1000B000F5E000E00BBF02C007900D92A231B1073E
:1000C000D9F721E0A2E1B1E001C01D92AA31B20747
:1000D000E1F70E9448020C947F020C940000CF9339
:1000E000DF9300D01F92CDB7DEB789837B836A830D
:1000F00089818A3031F48A819B81BC018DE00E9424
:100100006F0080EC90E0FC018081882F90E080728D
:100110009927892BB1F386EC90E02981FC0120839B
:1001200080E090E00F900F900F90DF91CF910895B5
:10013000CF93DF93CDB7DEB781E890E02BE0FC01F1
:10014000208388E890E02DE730E0FC0131832083B4
:100150008FE690E022E0FC01208384E890E0FC013F
:100160001182108280910E0190910F01A0911001D7
:10017000B09111018093130190931401A093150184
:10018000B09316018FE590E02FE530E0F901208172
:100190002068FC0120830000DF91CF910895CF9368
:1001A000DF93CDB7DEB781E890E0FC01108200005C
:1001B000DF91CF910895CF93DF93CDB7DEB781E084
:1001C000809312010000DF91CF9108951F920F924A
:1001D00000905F000F92112400905B000F922F930C
:1001E0003F934F935F936F937F938F939F93AF93BF
:1001F000BF93EF93FF93CF93DF93CDB7DEB780919B
:10020000130190911401A0911501B091160101976D
:10021000A109B1098093130190931401A0931501D2
:10022000B09316018091130190911401A0911501D2
:10023000B0911601892B8A2B8B2B91F40E94DB0045
:1002400080910E0190910F01A0911001B0911101C8
:100250008093130190931401A0931501B09316019C
:100260000000DF91CF91FF91EF91BF91AF919F91EE
:100270008F917F916F915F914F913F912F910F904F
:1002800000925B000F9000925F000F901F901895F6
:10029000CF93DF9300D000D0CDB7DEB769837A83E8
:1002A0008B839C8389819A81AB81BC8180930E0171
:1002B00090930F01A0931001B093110180910E0152
:1002C00090910F01A0911001B09111018093130141
:1002D00090931401A0931501B093160100000F90A4
:1002E0000F900F900F90DF91CF910895CF93DF93F0
:1002F0001F92CDB7DEB780E290E0FC01808180954F
:1003000089838091180190911901CC01A0E0B0E09F
:1003100040E050E027E030E0841B950B28173907B8
:1003200008F483C08A5B9F4FFC010C94760281E045
:1003300090E090931901809318017CC089818130ED
:1003400039F486E090E0909319018093180172C00F
:1003500082E090E090931901809318016BC089812D
:10036000813039F486E090E0909319018093180170
:1003700061C083E090E090931901809318015AC006
:100380008981813039F486E090E09093190180935F
:10039000180150C084E090E09093190180931801F7
:1003A00049C08981813039F486E090E09093190149
:1003B000809318013FC085E090E0909319018093ED
:1003C000180138C08981813039F486E090E090933B
:1003D0001901809318012EC082E090E090931901DA
:1003E0008093180127C08981813039F486E090E03C
:1003F00090931901809318011DC087E090E09093BD
:1004000019018093180116C08981813039F481E087
:1004100090E090931901809318010CC087E090E060
:10042000909319018093180105C010921901109240
:1004300018010000809118019091190183309105F5
:1004400081F08430910518F4029739F016C0843099
:10045000910579F0059749F010C081E0809317016C
:100460000CC082E08093170108C082E080931701DE
:1004700004C084E080931701000085E290E02091A1
:100480001701FC01208300000F90DF91CF910895A8
:10049000CF93DF93CDB7DEB781E290E0FC0110820D
:1004A00082E290E02FEFFC01208384E290E02FEFC6
:1004B000FC01208385E290E0FC0110826CE271E097
:1004C00080E090E00E9448010E94980081E090E066
:1004D00090931901809318010E9476010000809189
:1004E00012018823E1F310921201F6CFEE0FFF1FE5
:1004F0000024001C0BBE0790F691E02D0994F8949F
:02050000FFCF2B
:1005020000000002000000006F0000000000010077
:020512000000E7
:00000001FF
